:100000001DEF00F00000000000EF00F00000000015
:0A0010000000000000000000F3D71C
:10001C000900F5CFE6FF0006FBE10106F9E112004D
:0E002C000F0EC16E96908490968296841200FC
:10003A00F8DF84B20FD08480070E0B6E580E0C6E58
:10004A00590E0D6E0D2EFED70C2EFCD70B2EFAD79D
:10005A000000000084A40FD08490070E0B6E580E87
:10006A000C6E590E0D6E0D2EFED70C2EFCD70B2ED4
:0A007A00FAD700000000DDD7FFD721
:08008400332E322E322E300023
:020000040030CA
:0D000100021F1EFF8381FF0FC00FE00F40A4
:00000001FF
