:100000006EEF00F00000000000EF00F000000000C4
:0A0010000000000000000000F3D71C
:0E001C00ACB202D00000FCD730C0ADFF120025
:0A002A00000E9EBA010E006E1200D7
:10003400AECF01F0ABA202D0AB98AB8801C000F008
:020044001200A8
:100046002F6A2CC0E9FF2DC0EAFFEECF2EF02E500E
:10005600000A0DE02EC030F0DEDF2F2A2F502C24B0
:10006600E96E000E2D20EA6EEECF2EF0F0D71200CC
:100076001C0E236E000E246E300E256E000E266EAC
:10008600340E1B6E000E1C6E000E1D6E000E1E6ED4
:100096002A0E1F6E000E206E000E216E000E226EBE
:1000A600FF0E286EFF0E296E000E2A6E000E2B6EB6
:1000B600AC8A900EAB6E948E949C9EAA03D0AECF63
:0600C60000F0FBD7120060
:1000CC000900F5CFE6FF0006FBE10106F9E112009D
:1000DC00530E156E740E166E610E176E720E186E30
:1000EC00740E196E1A6A956A8C6AB886B06A2A0EF2
:1000FC00AF6EAC84BADF030E0B6E8A0E0C6E550E0F
:10010C000D6E0D2EFED70C2EFCD70B2EFAD7000041
:10011C000000150E2C6E000E2D6E8FDF0A0E306E49
:10012C0077DF0D0E306E74DF7ADF005217E0FF0EB2
:10013C008C6E020E0B6E450E0C6EA90E0D6E0D2EF6
:10014C00FED70C2EFCD70B2EFAD7000000006CDF6C
:10015C0000C027F000C030F05BDF8C6AE5D7FFD71A
:08016C00332E322E322E30003A
:020000040030CA
:0D000100021F1EFF8381FF0FC00FE00F40A4
:00000001FF
