:100000006EEF00F00000000000EF00F000000000C4
:0A0010000000000000000000F3D71C
:0E001C00ACB202D00000FCD730C0ADFF120025
:0A002A00000E9EBA010E006E1200D7
:10003400AECF01F0ABA202D0AB98AB8801C000F008
:020044001200A8
:100046002F6A2CC0E9FF2DC0EAFFEECF2EF02E500E
:10005600000A0DE02EC030F0DEDF2F2A2F502C24B0
:10006600E96E000E2D20EA6EEECF2EF0F0D71200CC
:100076000900F5CFE6FF0006FBE10106F9E11200F3
:100086001C0E286E000E296E300E2A6E000E2B6E88
:10009600340E1B6E000E1C6E000E1D6E000E1E6EC4
:1000A6002A0E1F6E000E206E000E216E000E226EAE
:1000B600FF0E236EFF0E246E000E256E000E266EBA
:1000C600AC8A900EAB6E948E949C9EAA03D0AECF53
:0600D60000F0FBD7120050
:1000DC00530E156E740E166E610E176E720E186E30
:1000EC00740E196E1A6AB886B06A2A0EAF6EAC849A
:1000FC00C4DF030E0B6E8A0E0C6E550E0D6E0D2E9C
:10010C00FED70C2EFCD70B2EFAD700000000150ED4
:10011C002C6E000E2D6E91DF0A0E306E79DF0D0EF7
:10012C00306E76DF7CDF005206E07EDF00C027F009
:0A013C0000C030F06DDFF6D7FFD7EA
:020000040030CA
:0D000100021F1EFF8381FF0FC00FE00F40A4
:00000001FF
