:10000000BEEF04F00000000000EF00F00000000070
:0A0010000000000000000000F3D71C
:10001C00220E0C6E086A096A0A6A0B6A0C06D8B4BE
:10002C001FD0D8900B320A32093208320332023216
:10003C0001320032D8A0F2D70C06D8B409D0045043
:10004C0008260550092206500A2207500B22EAD72F
:10005C00045008260550092206500A2207500B228C
:02006C00120080
:10006E00800E006EBB0E016E000E026E036E12004D
:10007E000134083609360450085E0550D8A0053CF8
:10008E00095E003601360F0E0C6E01340836093645
:10009E00045000A006D0085E0550D8A0053C095EAD
:1000AE0005D008260550D8B0053C09260036013685
:1000BE000C2EEBD700B006D0045008260550D8B051
:0800CE00053C092600001200A8
:1000D6000B6A0A6A096A086A0E6A0334083604500B
:1000E600085E0550D8A0053C095E0650D8A0063C1F
:1000F6000A5E0750D8A0073C0B5EE86AD8A0010E3E
:100106000E5E0336070E0C6E0334083609360A36C1
:100116000B360E36045003A012D0085E0550D8A048
:10012600053C095E0650D8A0063C0A5E0750D8A0DA
:10013600073C0B5EE86AD8A0010E0E5E11D00826B9
:100146000550D8B0053C09260650D8B0063C0A260C
:100156000750D8B0073C0B26E86AD8B0010E0E2629
:1001660003360C2ED1D70234083609360A360B363A
:100176000E36045003A012D0085E0550D8A0053CE8
:10018600095E0650D8A0063C0A5E0750D8A0073C78
:100196000B5EE86AD8A0010E0E5E11D00826055047
:1001A600D8B0053C09260650D8B0063C0A260750AA
:1001B600D8B0073C0B26E86AD8B0010E0E260236E8
:1001C600070E0C6E0234083609360A360B360E3622
:1001D600045002A012D0085E0550D8A0053C095E66
:1001E6000650D8A0063C0A5E0750D8A0073C0B5E16
:1001F600E86AD8A0010E0E5E11D008260550D8B0C8
:10020600053C09260650D8B0063C0A260750D8B049
:10021600073C0B26E86AD8B0010E0E2602360C2ED5
:10022600D1D70134083609360A360B360E36045055
:1002360002A012D0085E0550D8A0053C095E065003
:10024600D8A0063C0A5E0750D8A0073C0B5EE86AB9
:10025600D8A0010E0E5E11D008260550D8B0053C78
:1002660009260650D8B0063C0A260750D8B0073CE7
:100276000B26E86AD8B0010E0E260136070E0C6E64
:100286000134083609360A360B360E36045001A0FC
:1002960012D0085E0550D8A0053C095E0650D8A0CD
:1002A600063C0A5E0750D8A0073C0B5EE86AD8A059
:1002B600010E0E5E11D008260550D8B0053C092661
:1002C6000650D8B0063C0A260750D8B0073C0B2685
:1002D600E86AD8B0010E0E2601360C2ED1D70034AE
:1002E600083609360A360B360E36045001A012D0EF
:1002F600085E0550D8A0053C095E0650D8A0063C0D
:100306000A5E0750D8A0073C0B5EE86AD8A0010E2B
:100316000E5E11D008260550D8B0053C09260650B9
:10032600D8B0063C0A260750D8B0073C0B26E86A28
:10033600D8B0010E0E260036070E0C6E00340836B5
:1003460009360A360B360E36045000A012D0085E67
:100356000550D8A0053C095E0650D8A0063C0A5EAA
:100366000750D8A0073C0B5EE86AD8A0010E0E5EC7
:1003760011D008260550D8B0053C09260650D8B03D
:10038600063C0A260750D8B0073C0B26E86AD8B0C8
:10039600010E0E2600360C2ED1D700B00ED004501A
:1003A60008260550D8B0053C09260650D8B0063CAC
:0C03B6000A260750D8B0073C0B261200A6
:1003C20001019707970797C101F0970701500008AD
:1003D20003E200000000F7D7000000000000000068
:0403E2000000120005
:1003E600086A096A100E0C6E013408360936045084
:1003F600085E0550D8A0053C095ED8B007D0045069
:1004060008260550D8B0053C0926D8900036013696
:060416000C2EEAD71200D3
:10041C008280828282844E0E0C6EEB0E0D6E0D2E3F
:10042C00FED70C2EFCD78290829282944E0E0C6ECC
:0E043C00EB0E0D6E0D2EFED70C2EFCD712000F
:10044A0011DEE80E046E030E056E000E066E076ED0
:10045A00E0DD00C093F101C094F102C095F103C040
:10046A0096F18BC104F08CC105F0000E066E076E82
:10047A002DDE00C093F101C094F102C095F103C0D2
:10048A0096F100C005F001C006F002C007F003C0F3
:10049A0008F00832073206320532089E083207325F
:1004AA0006320532089E05C000F006C001F007C0FA
:1004BA0002F008C003F00332023201320032039E16
:1004CA0000C08FF101C090F1CDDD8DC104F08EC165
:1004DA0005F0000E066E076E9CDD8FC109F090C113
:1004EA000AF0000E0B6E0C6E030E086E09C004F0C3
:1004FA000AC005F00BC006F00CC007F0085007E070
:10050A0004360490053606360736FF0FF8D7DEDDC7
:10051A0000C093F101C094F102C095F103C096F1B5
:10052A000A0E046E000E056E8FC100F090C101F034
:10053A0055DF00C08FF101C090F1000E015C02E1AD
:10054A00030E005C01E242D081C1E9FF82C1EAFFE9
:10055A0001019651000808E19551000805E19451FE
:10056A00000802E1935100082FE28351EF129053E1
:10057A000DE0916B926B000E925D02E19051915DDC
:10058A0005E2976B19DF914B922BF5D78FC197F143
:10059A0013DF8451EF1690530DE0916B926B000EAE
:1005AA00925D02E19051915D05E2976B05DF914BF7
:1005BA00922BF5D78FC197F1FFDE010E935F000EE4
:0E05CA00945B955B965BC4D78451EF161200CC
:1005D8000450000A08E10550000A05E1FF0E006E0C
:1005E8007F0E016E57D00D6A096A086A0150001023
:1005F800D8B4000C015005180A6E0ABE0D1E0B6A0D
:1006080005AE05D0041E051E042AD8B4052A01AE7D
:1006180005D0001E011E002AD8B4012A0150051079
:100628000A6E0ABE10D027DD0BB020D00DAE000C2C
:10063800001E011E002AD8B4012A081E091E082A15
:10064800D8B4092A000C05AE0DD001BE07D0015060
:10065800096E0050086E016A006AE8D7016A006AEC
:10066800002A000C011E001E0B2ADDD7082AD8B468
:10067800092A0450085CD8A4D9D70550095CD8A425
:10068800D5D7096A086A002AD8B4012A01AECED79C
:060698000000FF0C12003F
:10069E0001018D6B8E6B8D6B8E6B800E8C19006EC7
:1006AE00800E8E19005C02E18D518B5D0CE3100EF5
:1006BE000C6E940E0D6E0D2EFED70C2EFCD7000078
:0806CE008D4B8E2BEAD71200C0
:1006D6008BC181F18CC182F18DC101F0010E006EDA
:1006E600015004E000360090FF0FFBD700C083F1F5
:1006F600001E00C084F1120E01018B25E96E000E6A
:100706008C21EA6E0050EF16120EE95E0050EF16CD
:020716001200CF
:100718000B6A0A6A096A00500402F4CF09F0F3CFA1
:1007280008F001500502F4CF0BF0F3CF0AF00050A7
:100738000502F3500926F4500A22E86A0B220150F8
:100748000402F3500926F4500A22E86A0B2208C072
:1007580000F009C001F00AC002F00BC003F012005B
:100768000F0EC16E94909492949482908292829487
:100778009380800E01018B6F0F0E8C6F8D6BA7DF3E
:0207880012005D
:10078A000900F5CFE6FF0006FBE10106F9E11200D8
:10079A000101856B866B010E876F000E886F010E53
:1007AA00896F000E8A6F000E801902E1090E7F1907
:1007BA0062E1856B866B15C001F016C002F0013646
:1007CA0001900236800E8619006E800E0218005CB7
:1007DA0002E10150855D49E2010E8525036E000E96
:1007EA008621046E03C000F004C001F000360090B8
:1007FA000136170E0024E96E000E0120EA6EEECFD4
:10080A0000F0EECF01F089C104F08AC105F07FDF64
:10081A0087C104F088C105F0DADE85C102F086C11D
:10082A0003F0023602900336170E0224E96E000E18
:10083A000320EA6EEECF8BF1EECF8CF100C08DF182
:10084A0001C08EF1FDDDE5DD81A009D001017F6BDC
:10085A00806BF40E8B6F010E8C6F1CDF06D00101CA
:10086A00020E8527000E8623A6D7FA0E8B6F000E7E
:08087A008C6F10DF98D712000B
:100882000101856B866B000E801902E1080E7F194B
:10089200D8A472D0000E861902E1000E851908E173
:1008A200829082928294010E856F000E866F53D0E1
:1008B200000E861902E1010E851908E182808292FA
:1008C2008294020E856F000E866F45D0000E861947
:1008D20002E1020E851908E1828082828294030E6F
:1008E200856F000E866F37D0000E861902E1030E67
:1008F200851908E1829082828294040E856F000E2F
:10090200866F29D0000E861902E1040E851908E1CE
:10091200829082828284050E856F000E866F1BD0C4
:10092200000E861902E1050E851908E18290829275
:100932008284060E856F000E866F0DD0000E86191A
:1009420002E1060E851907E1828082928284010EFD
:10095200856F000E866FFA0E8B6F000E8C6F9EDE17
:1009620081A009D0090E7F6F000E806FF40E8B6F8D
:0A097200010E8C6F93DE87D7120090
:10097C00F0EC05F0F3DE81A013D0800E006E800E3B
:10098C008019005C02E17F51090803E37F4B802B47
:10099C0002D07F6B806BF40E8B6F010E8C6F79DE47
:1009AC00000E801902E1000E7F1904E18290829200
:1009BC00829458D0000E801902E1010E7F1904E1D7
:1009CC008280829282944ED0000E801902E1020E37
:1009DC007F1904E182808282829444D0000E8019B7
:1009EC0002E1030E7F1904E18290828282943AD054
:1009FC00000E801902E1040E7F1904E182908282BC
:100A0C00828430D0000E801902E1050E7F1904E1BA
:100A1C0082908292828426D0000E801902E1060E0A
:100A2C007F1904E18280829282841CD0000E80198E
:100A3C0002E1070E7F1904E182808282828412D047
:100A4C00000E801902E1080E7F1902E114DF0AD0B2
:100A5C00000E801902E1090E7F1902E198DE02D026
:080A6C007F6B806B88D7FFD778
:100BE00010EE15F06C0E006E020E016E740EF66EB5
:0E0BF0000A0EF76E000EF86EC5EC03F0120050
:020A74005A0026
:100A7600880140010000A0008801E001D201400188
:100A86000B024001880140010000A0008801E0013E
:100A96005D01400172014001880140010000A00093
:100AA6008801E001D20140010B02400188014001AA
:100AB6000000A0008801E0015D01400172014001D3
:100AC600DC03A0001003A0004B020005DC03A0001D
:100AD6001003A00015010005DC03A0001003A00010
:100AE60006010005EE01A0000601A00000000005B9
:100AF600EE01A0008801A000E4020005EE01A000BE
:100B06008801A000BA020005EE01A0008801A0003D
:100B1600930200059302A0004B02A000000000050E
:100B26009302A0000601A000880100059302A00020
:100B36000601A000720100059302A0000601A000B4
:100B46005D0100054A01A0005D01A000000000054E
:100B5600DC03A0001003A0004B020005DC03A0008C
:100B66001003A00015010005DC03A0001003A0007F
:100B760006010005EE01A0000601A0000000000528
:100B8600880140010000A0008801E001D201400177
:100B96000B024001880140010000A0008801E0012D
:100BA6005D01400172014001880140010000A00082
:100BB6008801E001D20140010B0240018801400199
:100BC6000000A0008801E0015D01400172014001C2
:080BD600880180020000000507
:020BDE00000015
:020000040030CA
:0E000000000C1F1EFF8381FF0FC00FE00F409A
:00000001FF
