:100000001DEF05F00000000000EF00F00000000010
:0A0010000000000000000000F3D71C
:10001C00220E0C6E086A096A0A6A0B6A0C06D8B4BE
:10002C001FD0D8900B320A32093208320332023216
:10003C0001320032D8A0F2D70C06D8B409D0045043
:10004C0008260550092206500A2207500B22EAD72F
:10005C00045008260550092206500A2207500B228C
:02006C00120080
:10006E000B6A0A6A096A086A0E6A03340836045073
:10007E00085E0550D8A0053C095E0650D8A0063C87
:10008E000A5E0750D8A0073C0B5EE86AD8A0010EA6
:10009E000E5E0336070E0C6E0334083609360A362A
:1000AE000B360E36045003A012D0085E0550D8A0B1
:1000BE00053C095E0650D8A0063C0A5E0750D8A043
:1000CE00073C0B5EE86AD8A0010E0E5E11D0082622
:1000DE000550D8B0053C09260650D8B0063C0A2675
:1000EE000750D8B0073C0B26E86AD8B0010E0E2692
:1000FE0003360C2ED1D70234083609360A360B36A3
:10010E000E36045003A012D0085E0550D8A0053C50
:10011E00095E0650D8A0063C0A5E0750D8A0073CE0
:10012E000B5EE86AD8A0010E0E5E11D008260550AF
:10013E00D8B0053C09260650D8B0063C0A26075012
:10014E00D8B0073C0B26E86AD8B0010E0E26023650
:10015E00070E0C6E0234083609360A360B360E368A
:10016E00045002A012D0085E0550D8A0053C095ECE
:10017E000650D8A0063C0A5E0750D8A0073C0B5E7E
:10018E00E86AD8A0010E0E5E11D008260550D8B030
:10019E00053C09260650D8B0063C0A260750D8B0B2
:1001AE00073C0B26E86AD8B0010E0E2602360C2E3E
:1001BE00D1D70134083609360A360B360E360450BE
:1001CE0002A012D0085E0550D8A0053C095E06506C
:1001DE00D8A0063C0A5E0750D8A0073C0B5EE86A22
:1001EE00D8A0010E0E5E11D008260550D8B0053CE1
:1001FE0009260650D8B0063C0A260750D8B0073C50
:10020E000B26E86AD8B0010E0E260136070E0C6ECC
:10021E000134083609360A360B360E36045001A064
:10022E0012D0085E0550D8A0053C095E0650D8A035
:10023E00063C0A5E0750D8A0073C0B5EE86AD8A0C1
:10024E00010E0E5E11D008260550D8B0053C0926C9
:10025E000650D8B0063C0A260750D8B0073C0B26ED
:10026E00E86AD8B0010E0E2601360C2ED1D7003416
:10027E00083609360A360B360E36045001A012D057
:10028E00085E0550D8A0053C095E0650D8A0063C75
:10029E000A5E0750D8A0073C0B5EE86AD8A0010E94
:1002AE000E5E11D008260550D8B0053C0926065022
:1002BE00D8B0063C0A260750D8B0073C0B26E86A91
:1002CE00D8B0010E0E260036070E0C6E003408361E
:1002DE0009360A360B360E36045000A012D0085ED0
:1002EE000550D8A0053C095E0650D8A0063C0A5E13
:1002FE000750D8A0073C0B5EE86AD8A0010E0E5E30
:10030E0011D008260550D8B0053C09260650D8B0A5
:10031E00063C0A260750D8B0073C0B26E86AD8B030
:10032E00010E0E2600360C2ED1D700B00ED0045082
:10033E0008260550D8B0053C09260650D8B0063C14
:0C034E000A260750D8B0073C0B2612000E
:10035A000134083609360450085E0550D8A0053C19
:10036A00095E003601360F0E0C6E01340836093666
:10037A00045000A006D0085E0550D8A0053C095ECE
:10038A0005D008260550D8B0053C092600360136A6
:10039A000C2EEBD700B006D0045008260550D8B072
:0803AA00053C092600001200C9
:1003B200800E006EBB0E016E000E026E036E120006
:1003C200086A096A100E0C6E0134083609360450A8
:1003D200085E0550D8A0053C095ED8B007D004508D
:1003E20008260550D8B0053C0926D89000360136BB
:0603F2000C2EEAD71200F8
:1003F8000001EB6BEC6BEB6BEC6B800EEA19006E9B
:10040800800EEC19005C02E1EB51E95D0CE3100E83
:100418000C6E940E0D6E0D2EFED70C2EFCD7000020
:08042800EB4BEC2BEAD71200AC
:100430000001E907E907E9C001F0E90701500008F8
:1004400003E200000000F7D70000000000000000F9
:040450000000120096
:10045400AEDFE80E046E030E056E000E066E076E28
:10046400DBDD00C0E5F001C0E6F002C0E7F003C048
:10047400E8F0DDC004F0DEC005F0000E066E076E85
:10048400F4DD00C0E5F001C0E6F002C0E7F003C00F
:10049400E8F000C005F001C006F002C007F003C098
:1004A40008F00832073206320532089E0832073255
:1004B40006320532089E05C000F006C001F007C0F0
:1004C40002F008C003F00332023201320032039E0C
:1004D40000C0E1F001C0E2F06ADFDFC004F0E0C078
:1004E40005F0000E066E076E97DDE1C009F0E2C06C
:1004F4000AF0000E0B6E0C6E030E086E09C004F0B9
:100504000AC005F00BC006F00CC007F0085007E065
:1005140004360490053606360736FF0FF8D7A5DDF6
:1005240000C0E5F001C0E6F002C0E7F003C0E8F067
:100534000A0E046E000E056EE1C000F0E2C001F088
:100544003EDF00C0E1F001C0E2F0000E015C02E118
:10055400030E005C01E242D0D1C0E9FFD2C0EAFF41
:100564000001E851000808E1E751000805E1E651FF
:10057400000802E1E55100082FE2D351EF12E253E3
:100584000DE0E36BE46B000EE45D02E1E251E35D38
:1005940005E2E96B4BDFE34BE42BF5D7E1C0E9F06F
:1005A40045DFD451EF16E2530DE0E36BE46B000E2C
:1005B400E45D02E1E251E35D05E2E96B37DFE34B21
:1005C400E42BF5D7E1C0E9F031DF010EE55F000E61
:0E05D400E65BE75BE85BC4D7D451EF1612007C
:1005E2000001DF6BE06BDDC000F0DEC001F0013224
:1005F2000032019E01BC018E01AE03D002E3004A2B
:10060200012A00C0DFF001C0E0F082808282828491
:1006120000C0E9F001C0EAF0EEDE8290829282949C
:0C062200DFC0E9F0E0C0EAF0E6DE120004
:10062E000B6A0A6A096A00500402F4CF09F0F3CF8C
:10063E0008F001500502F4CF0BF0F3CF0AF0005092
:10064E000502F3500926F4500A22E86A0B220150E3
:10065E000402F3500926F4500A22E86A0B2208C05D
:10066E0000F009C001F00AC002F00BC003F0120046
:10067E00DDC0D1F0DEC0D2F0DFC001F0010E006EA1
:10068E00015004E000360090FF0FFBD700C0D3F0FE
:10069E00001E00C0D4F0120E0001DD25E96E000E22
:1006AE00DE21EA6E0050EF16120EE95E0050EF16D4
:0206BE00120028
:1006C0000001DF6BE06BDDC000F0DEC001F0013245
:1006D0000032019E01BC018E01AE03D002E3004A4C
:1006E000012A00C0DFF001C0E0F082908292829483
:1006F00000C0E9F001C0EAF07FDE8290829282942D
:0C070000DFC0E9F0E0C0EAF077DE120094
:10070C000450000A08E10550000A05E1FF0E006ED6
:10071C007F0E016E57D00D6A096A086A01500010ED
:10072C00D8B4000C015005180A6E0ABE0D1E0B6AD7
:10073C0005AE05D0041E051E042AD8B4052A01AE48
:10074C0005D0001E011E002AD8B4012A0150051044
:10075C000A6E0ABE10D0FBDD0BB020D00DAE000C23
:10076C00001E011E002AD8B4012A081E091E082AE0
:10077C00D8B4092A000C05AE0DD001BE07D001502B
:10078C00096E0050086E016A006AE8D7016A006AB7
:10079C00002A000C011E001E0B2ADDD7082AD8B433
:1007AC00092A0450085CD8A4D9D70550095CD8A4F0
:1007BC00D5D7096A086A002AD8B4012A01AECED767
:0607CC000000FF0C12000A
:1007D2000F0EC16E9490949294948290829282941D
:1007E2009380800E0001DD6F0F0EDE6FDF6B46DF40
:0207F2001200F3
:1007F4000900F5CFE6FF0006FBE10106F9E112006E
:100804000001D56BD66BD76BD86B030ED96F000E76
:10081400DA6F020EDB6F000EDC6F000ED01902E1FE
:10082400090ECF19D8A489D0D56BD66B15C001F0A9
:1008340016C002F0013601900236800ED619006E01
:10084400800E0218005C02E10150D55D70E2010ED9
:10085400D525036E000ED621046E03C000F004C03B
:1008640001F0003600900136170E0024E96E000EE8
:100874000120EA6EEECF00F0EECF01F0DBC004F011
:10088400DCC005F0D2DED9C004F0DAC005F03CDFEC
:1008940000C0D7F001C0D8F0D5C000F0D6C001F038
:1008A400003600900136170E0024E96E000E012078
:1008B400EA6EEECF01F0EECF02F0000E021802E174
:1008C400000E01181CE0D5C000F0D6C001F00036BF
:1008D40000900136170E0024E96E000E0120EA6E26
:1008E400EECFDDF0EECFDEF0D7C0DFF0D8C0E0F021
:1008F400AFDDD7C0DDF0D8C0DEF071DE09D0000175
:10090400D7C0DDF0D8C0DEF0DD37DD91DE37D6DECE
:1009140081A008D0CF6BD06BF40EE96F010EEA6FA3
:1009240069DD05D0020ED527000ED6237FD7FA0E37
:0C093400E96F000EEA6F5EDD70D7120064
:100940000001D56BD66B000ED01902E1080ECF194D
:10095000D8A472D0000ED61902E1000ED51908E114
:10096000829082928294010ED56F000ED66F53D082
:10097000000ED61902E1010ED51908E1828082929B
:100980008294020ED56F000ED66F45D0000ED61998
:1009900002E1020ED51908E1828082828294030E60
:1009A000D56F000ED66F37D0000ED61902E1030EB8
:1009B000D51908E1829082828294040ED56F000ED0
:1009C000D66F29D0000ED61902E1040ED51908E120
:1009D000829082828284050ED56F000ED66F1BD066
:1009E000000ED61902E1050ED51908E18290829217
:1009F0008284060ED56F000ED66F0DD0000ED6196C
:100A000002E1060ED51907E1828082928284010EEE
:100A1000D56F000ED66FFA0EE96F000EEA6FECDCB0
:100A200081A009D0090ECF6F000ED06FF40EE96FD0
:0A0A3000010EEA6FE1DC87D7120027
:100A3A00F7EC05F0C9DE81A013D0800E006E800E9F
:100A4A00D019005C02E1CF51090803E3CF4BD02B48
:100A5A0002D0CF6BD06BF40EE96F010EEA6FC7DCE0
:100A6A00000ED01902E1000ECF1904E182908292A1
:100A7A00829458D0000ED01902E1010ECF1904E178
:100A8A008280829282944ED0000ED01902E1020E28
:100A9A00CF1904E182808282829444D0000ED01958
:100AAA0002E1030ECF1904E18290828282943AD045
:100ABA00000ED01902E1040ECF1904E1829082825D
:100ACA00828430D0000ED01902E1050ECF1904E15C
:100ADA0082908292828426D0000ED01902E1060EFC
:100AEA00CF1904E18280829282841CD0000ED01930
:100AFA0002E1070ECF1904E182808282828412D039
:100B0A00000ED01902E1080ECF1902E114DF0AD053
:100B1A00000ED01902E1090ECF1902E16EDE02D0F1
:080B2A00CF6BD06B88D7FFD719
:100BEE0010EE15F0BC0E006E010E016E320EF66E9A
:0E0BFE000B0EF76E000EF86EFAEC03F012000C
:020B32002E0093
:100B3400930240011003F0009302A00093025000BE
:100B44007003A0009302A0002601A00093024001BC
:100B5400DC03F0009302A000930250001704A000ED
:100B6400DC03A0001003A0009302A000DC03A0009B
:100B74002705A000930250002601A0002601500082
:100B8400EE01A000E402A0009302A005930240013C
:100B94001003F0009302A000930250007003A00021
:100BA4009302A0002601A00093024001DC03F000A0
:100BB4009302A000930250001704A000DC03A000DD
:100BC4001003A0009302A000DC03A0002705A000EE
:100BD400930250002601A00026015000EE01A0005F
:080BE400E402A0009302A00549
:020BEC00000007
:020000040030CA
:0E000000000C1F1EFF8381FF0FC00FE00F409A
:00000001FF
