:100000001DEF05F00000000000EF00F00000000010
:0A0010000000000000000000F3D71C
:10001C00220E0C6E086A096A0A6A0B6A0C06D8B4BE
:10002C001FD0D8900B320A32093208320332023216
:10003C0001320032D8A0F2D70C06D8B409D0045043
:10004C0008260550092206500A2207500B22EAD72F
:10005C00045008260550092206500A2207500B228C
:02006C00120080
:10006E000B6A0A6A096A086A0E6A03340836045073
:10007E00085E0550D8A0053C095E0650D8A0063C87
:10008E000A5E0750D8A0073C0B5EE86AD8A0010EA6
:10009E000E5E0336070E0C6E0334083609360A362A
:1000AE000B360E36045003A012D0085E0550D8A0B1
:1000BE00053C095E0650D8A0063C0A5E0750D8A043
:1000CE00073C0B5EE86AD8A0010E0E5E11D0082622
:1000DE000550D8B0053C09260650D8B0063C0A2675
:1000EE000750D8B0073C0B26E86AD8B0010E0E2692
:1000FE0003360C2ED1D70234083609360A360B36A3
:10010E000E36045003A012D0085E0550D8A0053C50
:10011E00095E0650D8A0063C0A5E0750D8A0073CE0
:10012E000B5EE86AD8A0010E0E5E11D008260550AF
:10013E00D8B0053C09260650D8B0063C0A26075012
:10014E00D8B0073C0B26E86AD8B0010E0E26023650
:10015E00070E0C6E0234083609360A360B360E368A
:10016E00045002A012D0085E0550D8A0053C095ECE
:10017E000650D8A0063C0A5E0750D8A0073C0B5E7E
:10018E00E86AD8A0010E0E5E11D008260550D8B030
:10019E00053C09260650D8B0063C0A260750D8B0B2
:1001AE00073C0B26E86AD8B0010E0E2602360C2E3E
:1001BE00D1D70134083609360A360B360E360450BE
:1001CE0002A012D0085E0550D8A0053C095E06506C
:1001DE00D8A0063C0A5E0750D8A0073C0B5EE86A22
:1001EE00D8A0010E0E5E11D008260550D8B0053CE1
:1001FE0009260650D8B0063C0A260750D8B0073C50
:10020E000B26E86AD8B0010E0E260136070E0C6ECC
:10021E000134083609360A360B360E36045001A064
:10022E0012D0085E0550D8A0053C095E0650D8A035
:10023E00063C0A5E0750D8A0073C0B5EE86AD8A0C1
:10024E00010E0E5E11D008260550D8B0053C0926C9
:10025E000650D8B0063C0A260750D8B0073C0B26ED
:10026E00E86AD8B0010E0E2601360C2ED1D7003416
:10027E00083609360A360B360E36045001A012D057
:10028E00085E0550D8A0053C095E0650D8A0063C75
:10029E000A5E0750D8A0073C0B5EE86AD8A0010E94
:1002AE000E5E11D008260550D8B0053C0926065022
:1002BE00D8B0063C0A260750D8B0073C0B26E86A91
:1002CE00D8B0010E0E260036070E0C6E003408361E
:1002DE0009360A360B360E36045000A012D0085ED0
:1002EE000550D8A0053C095E0650D8A0063C0A5E13
:1002FE000750D8A0073C0B5EE86AD8A0010E0E5E30
:10030E0011D008260550D8B0053C09260650D8B0A5
:10031E00063C0A260750D8B0073C0B26E86AD8B030
:10032E00010E0E2600360C2ED1D700B00ED0045082
:10033E0008260550D8B0053C09260650D8B0063C14
:0C034E000A260750D8B0073C0B2612000E
:10035A000134083609360450085E0550D8A0053C19
:10036A00095E003601360F0E0C6E01340836093666
:10037A00045000A006D0085E0550D8A0053C095ECE
:10038A0005D008260550D8B0053C092600360136A6
:10039A000C2EEBD700B006D0045008260550D8B072
:0803AA00053C092600001200C9
:1003B200800E006EBB0E016E000E026E036E120006
:1003C200086A096A100E0C6E0134083609360450A8
:1003D200085E0550D8A0053C095ED8B007D004508D
:1003E20008260550D8B0053C0926D89000360136BB
:0603F2000C2EEAD71200F8
:1003F80001019B6B9C6B9B6B9C6B800E9A19006E2A
:10040800800E9C19005C02E19B51995D0CE3100E73
:100418000C6E940E0D6E0D2EFED70C2EFCD7000020
:080428009B4B9C2BEAD712004C
:1004300001019907990799C101F099070150000836
:1004400003E200000000F7D70000000000000000F9
:040450000000120096
:10045400AEDFE80E046E030E056E000E066E076E28
:10046400DBDD00C095F101C096F102C097F103C035
:1004740098F18DC104F08EC105F0000E066E076E72
:10048400F4DD00C095F101C096F102C097F103C0FC
:1004940098F100C005F001C006F002C007F003C0E7
:1004A40008F00832073206320532089E0832073255
:1004B40006320532089E05C000F006C001F007C0F0
:1004C40002F008C003F00332023201320032039E0C
:1004D40000C091F101C092F16ADF8FC104F090C1B4
:1004E40005F0000E066E076E97DD91C109F092C10A
:1004F4000AF0000E0B6E0C6E030E086E09C004F0B9
:100504000AC005F00BC006F00CC007F0085007E065
:1005140004360490053606360736FF0FF8D7A5DDF6
:1005240000C095F101C096F102C097F103C098F1A3
:100534000A0E046E000E056E91C100F092C101F026
:100544003EDF00C091F101C092F1000E015C02E1B6
:10055400030E005C01E242D081C1E9FF82C1EAFFDF
:1005640001019851000808E19751000805E19651EE
:10057400000802E1955100082FE28351EF129253D3
:100584000DE0936B946B000E945D02E19251935DC8
:1005940005E2996B4BDF934B942BF5D791C199F1FD
:1005A40045DF8451EF1692530DE0936B946B000E6C
:1005B400945D02E19251935D05E2996B37DF934BB1
:1005C400942BF5D791C199F131DF010E955F000E9F
:0E05D400965B975B985BC4D78451EF161200BC
:1005E20001018F6B906B8DC100F08EC101F0013261
:1005F2000032019E01BC018E01AE03D002E3004A2B
:10060200012A00C08FF101C090F18280828282842F
:1006120000C099F101C09AF1EEDE8290829282943A
:0C0622008FC199F190C19AF1E6DE120040
:10062E000B6A0A6A096A00500402F4CF09F0F3CF8C
:10063E0008F001500502F4CF0BF0F3CF0AF0005092
:10064E000502F3500926F4500A22E86A0B220150E3
:10065E000402F3500926F4500A22E86A0B2208C05D
:10066E0000F009C001F00AC002F00BC003F0120046
:10067E008DC181F18EC182F18FC101F0010E006E2C
:10068E00015004E000360090FF0FFBD700C083F14D
:10069E00001E00C084F1120E01018D25E96E000EC0
:1006AE008E21EA6E0050EF16120EE95E0050EF1624
:0206BE00120028
:1006C00001018F6B906B8DC100F08EC101F0013282
:1006D0000032019E01BC018E01AE03D002E3004A4C
:1006E000012A00C08FF101C090F182908292829421
:1006F00000C099F101C09AF17FDE829082928294CB
:0C0700008FC199F190C19AF177DE1200D0
:10070C000450000A08E10550000A05E1FF0E006ED6
:10071C007F0E016E57D00D6A096A086A01500010ED
:10072C00D8B4000C015005180A6E0ABE0D1E0B6AD7
:10073C0005AE05D0041E051E042AD8B4052A01AE48
:10074C0005D0001E011E002AD8B4012A0150051044
:10075C000A6E0ABE10D0FBDD0BB020D00DAE000C23
:10076C00001E011E002AD8B4012A081E091E082AE0
:10077C00D8B4092A000C05AE0DD001BE07D001502B
:10078C00096E0050086E016A006AE8D7016A006AB7
:10079C00002A000C011E001E0B2ADDD7082AD8B433
:1007AC00092A0450085CD8A4D9D70550095CD8A4F0
:1007BC00D5D7096A086A002AD8B4012A01AECED767
:0607CC000000FF0C12000A
:1007D2000F0EC16E9490949294948290829282941D
:1007E2009380800E01018D6F0F0E8E6F8F6B46DF2F
:0207F2001200F3
:1007F4000900F5CFE6FF0006FBE10106F9E112006E
:100804000101856B866B876B886B020E896F000E06
:100814008A6F010E8B6F000E8C6F000E801902E13F
:10082400090E7F19D8A489D0856B866B15C001F099
:1008340016C002F0013601900236800E8619006E51
:10084400800E0218005C02E10150855D70E2010E29
:100854008525036E000E8621046E03C000F004C0DB
:1008640001F0003600900136170E0024E96E000EE8
:100874000120EA6EEECF00F0EECF01F08BC104F060
:100884008CC105F0D2DE89C104F08AC105F03CDFD9
:1008940000C087F101C088F185C100F086C101F074
:1008A400003600900136170E0024E96E000E012078
:1008B400EA6EEECF01F0EECF02F0000E021802E174
:1008C400000E01181CE085C100F086C101F000365D
:1008D40000900136170E0024E96E000E0120EA6E26
:1008E400EECF8DF1EECF8EF187C18FF188C190F1FB
:1008F400AFDD87C18DF188C18EF171DE09D00101B0
:1009040087C18DF188C18EF18D378D918E37D6DEFA
:1009140081A008D07F6B806BF40E996F010E9A6FE3
:1009240069DD05D0020E8527000E86237FD7FA0ED7
:0C093400996F000E9A6F5EDD70D7120004
:100940000101856B866B000E801902E1080E7F198C
:10095000D8A472D0000E861902E1000E851908E1B4
:10096000829082928294010E856F000E866F53D022
:10097000000E861902E1010E851908E1828082923B
:100980008294020E856F000E866F45D0000E861988
:1009900002E1020E851908E1828082828294030EB0
:1009A000856F000E866F37D0000E861902E1030EA8
:1009B000851908E1829082828294040E856F000E70
:1009C000866F29D0000E861902E1040E851908E110
:1009D000829082828284050E856F000E866F1BD006
:1009E000000E861902E1050E851908E182908292B7
:1009F0008284060E856F000E866F0DD0000E86195C
:100A000002E1060E851907E1828082928284010E3E
:100A1000856F000E866FFA0E996F000E9A6FECDCF0
:100A200081A009D0090E7F6F000E806FF40E996FC0
:0A0A3000010E9A6FE1DC87D7120077
:100A3A004FEC06F0C9DE81A013D0800E006E800E46
:100A4A008019005C02E17F51090803E37F4B802B88
:100A5A0002D07F6B806BF40E996F010E9A6FC7DC20
:100A6A00000E801902E1000E7F1904E18290829241
:100A7A00829458D0000E801902E1010E7F1904E118
:100A8A008280829282944ED0000E801902E1020E78
:100A9A007F1904E182808282829444D0000E8019F8
:100AAA0002E1030E7F1904E18290828282943AD095
:100ABA00000E801902E1040E7F1904E182908282FD
:100ACA00828430D0000E801902E1050E7F1904E1FC
:100ADA0082908292828426D0000E801902E1060E4C
:100AEA007F1904E18280829282841CD0000E8019D0
:100AFA0002E1070E7F1904E182808282828412D089
:100B0A00000E801902E1080E7F1902E114DF0AD0F3
:100B1A00000E801902E1090E7F1902E16EDE02D091
:080B2A007F6B806B88D7FFD7B9
:100C9E0010EE15F06C0E006E020E016E320EF66E38
:0E0CAE000B0EF76E000EF86EFAEC03F012005B
:020B32005A0067
:100B3400880140010000A0008801E001D2014001C9
:100B44000B024001880140010000A0008801E0017F
:100B54005D01400172014001880140010000A000D4
:100B64008801E001D20140010B02400188014001EB
:100B74000000A0008801E0015D0140017201400114
:100B8400DC03A0001003A0004B020005DC03A0005E
:100B94001003A00015010005DC03A0001003A00051
:100BA40006010005EE01A0000601A00000000005FA
:100BB400EE01A0008801A000E4020005EE01A000FF
:100BC4008801A000BA020005EE01A0008801A0007F
:100BD400930200059302A0004B02A0000000000550
:100BE4009302A0000601A000880100059302A00062
:100BF4000601A000720100059302A0000601A000F6
:100C04005D0100054A01A0005D01A000000000058F
:100C1400DC03A0001003A0004B020005DC03A000CD
:100C24001003A00015010005DC03A0001003A000C0
:100C340006010005EE01A0000601A0000000000569
:100C4400880140010000A0008801E001D2014001B8
:100C54000B024001880140010000A0008801E0016E
:100C64005D01400172014001880140010000A000C3
:100C74008801E001D20140010B02400188014001DA
:100C84000000A0008801E0015D0140017201400103
:080C9400880180020000000548
:020C9C00000056
:020000040030CA
:0E000000000C1F1EFF8381FF0FC00FE00F409A
:00000001FF
