:1000000037EF04F00000000000EF00F000000000F7
:0A0010000000000000000000F3D71C
:10001C00220E0C6E086A096A0A6A0B6A0C06D8B4BE
:10002C001FD0D8900B320A32093208320332023216
:10003C0001320032D8A0F2D70C06D8B409D0045043
:10004C0008260550092206500A2207500B22EAD72F
:10005C00045008260550092206500A2207500B228C
:02006C00120080
:10006E000B6A0A6A096A086A0E6A03340836045073
:10007E00085E0550D8A0053C095E0650D8A0063C87
:10008E000A5E0750D8A0073C0B5EE86AD8A0010EA6
:10009E000E5E0336070E0C6E0334083609360A362A
:1000AE000B360E36045003A012D0085E0550D8A0B1
:1000BE00053C095E0650D8A0063C0A5E0750D8A043
:1000CE00073C0B5EE86AD8A0010E0E5E11D0082622
:1000DE000550D8B0053C09260650D8B0063C0A2675
:1000EE000750D8B0073C0B26E86AD8B0010E0E2692
:1000FE0003360C2ED1D70234083609360A360B36A3
:10010E000E36045003A012D0085E0550D8A0053C50
:10011E00095E0650D8A0063C0A5E0750D8A0073CE0
:10012E000B5EE86AD8A0010E0E5E11D008260550AF
:10013E00D8B0053C09260650D8B0063C0A26075012
:10014E00D8B0073C0B26E86AD8B0010E0E26023650
:10015E00070E0C6E0234083609360A360B360E368A
:10016E00045002A012D0085E0550D8A0053C095ECE
:10017E000650D8A0063C0A5E0750D8A0073C0B5E7E
:10018E00E86AD8A0010E0E5E11D008260550D8B030
:10019E00053C09260650D8B0063C0A260750D8B0B2
:1001AE00073C0B26E86AD8B0010E0E2602360C2E3E
:1001BE00D1D70134083609360A360B360E360450BE
:1001CE0002A012D0085E0550D8A0053C095E06506C
:1001DE00D8A0063C0A5E0750D8A0073C0B5EE86A22
:1001EE00D8A0010E0E5E11D008260550D8B0053CE1
:1001FE0009260650D8B0063C0A260750D8B0073C50
:10020E000B26E86AD8B0010E0E260136070E0C6ECC
:10021E000134083609360A360B360E36045001A064
:10022E0012D0085E0550D8A0053C095E0650D8A035
:10023E00063C0A5E0750D8A0073C0B5EE86AD8A0C1
:10024E00010E0E5E11D008260550D8B0053C0926C9
:10025E000650D8B0063C0A260750D8B0073C0B26ED
:10026E00E86AD8B0010E0E2601360C2ED1D7003416
:10027E00083609360A360B360E36045001A012D057
:10028E00085E0550D8A0053C095E0650D8A0063C75
:10029E000A5E0750D8A0073C0B5EE86AD8A0010E94
:1002AE000E5E11D008260550D8B0053C0926065022
:1002BE00D8B0063C0A260750D8B0073C0B26E86A91
:1002CE00D8B0010E0E260036070E0C6E003408361E
:1002DE0009360A360B360E36045000A012D0085ED0
:1002EE000550D8A0053C095E0650D8A0063C0A5E13
:1002FE000750D8A0073C0B5EE86AD8A0010E0E5E30
:10030E0011D008260550D8B0053C09260650D8B0A5
:10031E00063C0A260750D8B0073C0B26E86AD8B030
:10032E00010E0E2600360C2ED1D700B00ED0045082
:10033E0008260550D8B0053C09260650D8B0063C14
:0C034E000A260750D8B0073C0B2612000E
:10035A000134083609360450085E0550D8A0053C19
:10036A00095E003601360F0E0C6E01340836093666
:10037A00045000A006D0085E0550D8A0053C095ECE
:10038A0005D008260550D8B0053C092600360136A6
:10039A000C2EEBD700B006D0045008260550D8B072
:0803AA00053C092600001200C9
:1003B200200E006E4E0E016E000E026E036E1200D3
:1003C200086A096A100E0C6E0134083609360450A8
:1003D200085E0550D8A0053C095ED8B007D004508D
:1003E20008260550D8B0053C0926D89000360136BB
:0603F2000C2EEAD71200F8
:1003F800796A7A6A796A7A6A800E7818006E800E4D
:100408007A18005C02E17950775C0BE3070E0C6EFA
:100418007D0E0D6E0D2EFED70C2EFCD7794A7A2A4A
:04042800EBD71200FC
:10042C007706770677C001F077060150000803E2E3
:10043C0000000000F7D700000000000000000000E2
:02044C0012009C
:10044E006D6A6E6A6BC000F06CC001F00132003252
:10045E00019E01BC018E01AE03D002E3004A012AC7
:10046E0000C06DF001C06EF0838200C077F001C055
:10047E0078F0BBDF83926DC077F06EC078F0B5DF99
:02048E0012005A
:100490006BC061F06CC062F06DC001F0010E006EC7
:1004A000015004E000360090FF0FFBD700C060F061
:1004B000001E00C05FF0120E6B24E96E000E6C206F
:1004C000EA6E0050EF16120EE95E0050EF161200B1
:1004D0000450000A08E10550000A05E1FF0E006E15
:1004E0007F0E016E57D00D6A096A086A015000102C
:1004F000D8B4000C015005180A6E0ABE0D1E0B6A16
:1005000005AE05D0041E051E042AD8B4052A01AE86
:1005100005D0001E011E002AD8B4012A0150051082
:100520000A6E0ABE10D019DF0BB020D00DAE000C41
:10053000001E011E002AD8B4012A081E091E082A1E
:10054000D8B4092A000C05AE0DD001BE07D0015069
:10055000096E0050086E016A006AE8D7016A006AF5
:10056000002A000C011E001E0B2ADDD7082AD8B471
:10057000092A0450085CD8A4D9D70550095CD8A42E
:10058000D5D7096A086A002AD8B4012A01AECED7A5
:060590000000FF0C120048
:100596000DDFE80E046E030E056E000E066E076E86
:1005A6003ADD00C073F001C074F002C075F003C0FC
:1005B60076F06BC004F06CC005F0000E066E076E98
:1005C60053DD00C073F001C074F002C075F003C0C3
:1005D60076F000C005F001C006F002C007F003C0C7
:1005E60008F00832073206320532089E0832073212
:1005F60006320532089E05C000F006C001F007C0AD
:1006060002F008C003F00332023201320032039EC8
:1006160000C06FF001C070F0C9DE6DC004F06EC09E
:1006260005F0000E066E076EF6DC6FC009F070C0AE
:100636000AF0000E0B6E0C6E030E086E09C004F075
:100646000AC005F00BC006F00CC007F0085007E022
:1006560004360490053606360736FF0FF8D704DD54
:1006660000C073F001C074F002C075F003C076F0EC
:100676000A0E046E000E056E6FC000F070C001F029
:100686009DDE00C06FF001C070F0000E015C02E15B
:10069600030E005C01E241D061C0E9FF62C0EAFFDF
:1006A6007650000808E17550000805E1745000080E
:1006B60002E1735000082FE26050EF1270520DE015
:1006C600716A726A000E725C02E17050715C05E23A
:1006D600776AA9DE714A722AF5D76FC077F0A3DE72
:1006E6005F50EF1670520DE0716A726A000E725C0E
:1006F60002E17050715C05E2776A95DE714A722AF2
:10070600F5D76FC077F08FDE010E735E000E745A58
:0C071600755A765AC5D75F50EF161200D6
:100722000B6A0A6A096A00500402F4CF09F0F3CF97
:1007320008F001500502F4CF0BF0F3CF0AF000509D
:100742000502F3500926F4500A22E86A0B220150EE
:100752000402F3500926F4500A22E86A0B2208C068
:1007620000F009C001F00AC002F00BC003F0120051
:100772000900F5CFE6FF0006FBE10106F9E11200F0
:100782000F0EC16E95928392820E6B6E0F0E6C6E7F
:08079200010E6D6E7CDE120009
:10079A00636A646A656A666A010E676E000E686E4D
:1007AA00010E696E000E6A6E636A646A5DC001F0CA
:1007BA005EC002F0013601900236800E6418006EA7
:1007CA00800E0218005C02E10150635C45E2010EF2
:1007DA006324036E000E6420046E03C000F004C09C
:1007EA0001F0003600900136150E0024E96E000E65
:1007FA000120EA6EEECF00F0EECF01F069C004F0FE
:10080A006AC005F089DF67C004F068C005F05BDEE6
:10081A0000C065F001C066F063C002F064C003F076
:10082A00023602900336150E0224E96E000E0320EA
:10083A00EA6EEECF6BF0EECF6CF000C06DF001C047
:10084A006EF0A4DE65C06BF066C06CF0FBDD020ED4
:10085A006326000E6422AAD7F40E776E010E786E14
:04086A00C6DD1200D5
:0C086E0066EC04F087DF92DFFED7FFD7B6
:1008CC0010EE15F04A0E006E010E016E7A0EF66EE9
:0E08DC00080EF76E000EF86EB9EC03F0120075
:10087A004B025000000028004B02500000002800E4
:10088A004B025000000028004B02A0000000280084
:10089A004B02A000000028004B02A0000000280024
:1008AA004B025000000028004B02500000002800B4
:0808BA004B0250000000280071
:0208C200120022
:0808C400332E322E322E3000DB
:020000040030CA
:0D000100021F1EFF8381FF0FC00FE00F40A4
:00000001FF
