:1000000078EF04F00000000000EF00F000000000B6
:0A0010000000000000000000F3D71C
:10001C000B6A0A6A096A086A0E6A033408360450C5
:10002C00085E0550D8A0053C095E0650D8A0063CD9
:10003C000A5E0750D8A0073C0B5EE86AD8A0010EF8
:10004C000E5E0336070E0C6E0334083609360A367C
:10005C000B360E36045003A012D0085E0550D8A003
:10006C00053C095E0650D8A0063C0A5E0750D8A095
:10007C00073C0B5EE86AD8A0010E0E5E11D0082674
:10008C000550D8B0053C09260650D8B0063C0A26C7
:10009C000750D8B0073C0B26E86AD8B0010E0E26E4
:1000AC0003360C2ED1D70234083609360A360B36F5
:1000BC000E36045003A012D0085E0550D8A0053CA3
:1000CC00095E0650D8A0063C0A5E0750D8A0073C33
:1000DC000B5EE86AD8A0010E0E5E11D00826055002
:1000EC00D8B0053C09260650D8B0063C0A26075065
:1000FC00D8B0073C0B26E86AD8B0010E0E260236A3
:10010C00070E0C6E0234083609360A360B360E36DC
:10011C00045002A012D0085E0550D8A0053C095E20
:10012C000650D8A0063C0A5E0750D8A0073C0B5ED0
:10013C00E86AD8A0010E0E5E11D008260550D8B082
:10014C00053C09260650D8B0063C0A260750D8B004
:10015C00073C0B26E86AD8B0010E0E2602360C2E90
:10016C00D1D70134083609360A360B360E36045010
:10017C0002A012D0085E0550D8A0053C095E0650BE
:10018C00D8A0063C0A5E0750D8A0073C0B5EE86A74
:10019C00D8A0010E0E5E11D008260550D8B0053C33
:1001AC0009260650D8B0063C0A260750D8B0073CA2
:1001BC000B26E86AD8B0010E0E260136070E0C6E1F
:1001CC000134083609360A360B360E36045001A0B7
:1001DC0012D0085E0550D8A0053C095E0650D8A088
:1001EC00063C0A5E0750D8A0073C0B5EE86AD8A014
:1001FC00010E0E5E11D008260550D8B0053C09261C
:10020C000650D8B0063C0A260750D8B0073C0B263F
:10021C00E86AD8B0010E0E2601360C2ED1D7003468
:10022C00083609360A360B360E36045001A012D0A9
:10023C00085E0550D8A0053C095E0650D8A0063CC7
:10024C000A5E0750D8A0073C0B5EE86AD8A0010EE6
:10025C000E5E11D008260550D8B0053C0926065074
:10026C00D8B0063C0A260750D8B0073C0B26E86AE3
:10027C00D8B0010E0E260036070E0C6E0034083670
:10028C0009360A360B360E36045000A012D0085E22
:10029C000550D8A0053C095E0650D8A0063C0A5E65
:1002AC000750D8A0073C0B5EE86AD8A0010E0E5E82
:1002BC0011D008260550D8B0053C09260650D8B0F8
:1002CC00063C0A260750D8B0073C0B26E86AD8B083
:1002DC00010E0E2600360C2ED1D700B00ED00450D5
:1002EC0008260550D8B0053C09260650D8B0063C67
:0C02FC000A260750D8B0073C0B26120061
:10030800086A096A100E0C6E013408360936045062
:10031800085E0550D8A0053C095ED8B007D0045047
:1003280008260550D8B0053C0926D8900036013675
:060338000C2EEAD71200B2
:10033E00220E0C6E086A096A0A6A0B6A0C06D8B499
:10034E001FD0D8900B320A320932083203320232F1
:10035E0001320032D8A0F2D70C06D8B409D004501E
:10036E0008260550092206500A2207500B22EAD70A
:10037E00045008260550092206500A2207500B2267
:02038E0012005B
:100390000134083609360450085E0550D8A0053CE3
:1003A000095E003601360F0E0C6E01340836093630
:1003B000045000A006D0085E0550D8A0053C095E98
:1003C00005D008260550D8B0053C09260036013670
:1003D0000C2EEBD700B006D0045008260550D8B03C
:0803E000053C09260000120093
:1003E800200E006E4E0E016E000E026E036E12009D
:1003F800756A766A756A766A800E7418006E800E61
:100408007618005C02E17550735C0BE3070E0C6E06
:100418007D0E0D6E0D2EFED70C2EFCD7754A762A52
:04042800EBD71200FC
:10042C007306730673C001F073060150000803E2F3
:10043C0000000000F7D700000000000000000000E2
:02044C0012009C
:10044E00696A6A6A67C000F068C001F00132003262
:10045E00019E01BC018E01AE03D002E3004A012AC7
:10046E0000C069F001C06AF0839200C073F001C051
:10047E0074F0BBDF839269C073F06AC074F0B5DFAD
:02048E0012005A
:10049000696A6A6A67C000F068C001F00132003220
:1004A000019E01BC018E01AE03D002E3004A012A85
:1004B00000C069F001C06AF0838200C073F001C01F
:1004C00074F09ADF839269C073F06AC074F094DFAD
:0204D000120018
:1004D2000B6A0A6A096A00500402F4CF09F0F3CFEA
:1004E20008F001500502F4CF0BF0F3CF0AF00050F0
:1004F2000502F3500926F4500A22E86A0B22015041
:100502000402F3500926F4500A22E86A0B2208C0BA
:1005120000F009C001F00AC002F00BC003F01200A3
:100522000450000A08E10550000A05E1FF0E006EC2
:100532007F0E016E57D00D6A096A086A01500010D9
:10054200D8B4000C015005180A6E0ABE0D1E0B6AC3
:1005520005AE05D0041E051E042AD8B4052A01AE34
:1005620005D0001E011E002AD8B4012A0150051030
:100572000A6E0ABE10D00BDF0BB020D00DAE000CFD
:10058200001E011E002AD8B4012A081E091E082ACC
:10059200D8B4092A000C05AE0DD001BE07D0015017
:1005A200096E0050086E016A006AE8D7016A006AA3
:1005B200002A000C011E001E0B2ADDD7082AD8B41F
:1005C200092A0450085CD8A4D9D70550095CD8A4DC
:1005D200D5D7096A086A002AD8B4012A01AECED753
:0605E2000000FF0C1200F6
:1005E800FFDEE80E046E030E056E000E066E076E43
:1005F800A2DE00C06FF001C070F002C071F003C04D
:1006080072F067C004F068C005F0000E066E076E51
:1006180001DD00C06FF001C070F002C071F003C0CE
:1006280072F000C005F001C006F002C007F003C078
:1006380008F00832073206320532089E08320732BF
:1006480006320532089E05C000F006C001F007C05A
:1006580002F008C003F00332023201320032039E76
:1006680000C06BF001C06CF0BBDE69C004F06AC06A
:1006780005F0000E066E076E5EDE6BC009F06CC0FA
:100688000AF0000E0B6E0C6E030E086E09C004F023
:100698000AC005F00BC006F00CC007F0085007E0D0
:1006A80004360490053606360736FF0FF8D7B2DC55
:1006B80000C06FF001C070F002C071F003C072F0AA
:1006C8000A0E046E000E056E6BC000F06CC001F0DF
:1006D80017DE00C06BF001C06CF0000E015C02E197
:1006E800030E005C01E241D05DC0E9FF5EC0EAFF95
:1006F8007250000808E17150000805E170500008C8
:1007080002E16F5000082FE25C50EF126C520DE0CE
:100718006D6A6E6A000E6E5C02E16C506D5C05E2FB
:10072800736A80DE6D4A6E2AF5D76BC073F07ADE85
:100738005B50EF166C520DE06D6A6E6A000E6E5CCF
:1007480002E16C506D5C05E2736A6CDE6D4A6E2ADC
:10075800F5D76BC073F066DE010E6F5E000E705A3F
:0C076800715A725AC5D75B50EF16120090
:1007740067C05DF068C05EF069C001F0010E006EF4
:10078400015004E000360090FF0FFBD700C05CF07E
:10079400001E00C05BF0120E6724E96E000E682094
:1007A400EA6E0050EF16120EE95E0050EF161200CA
:1007B4000900F5CFE6FF0006FBE10106F9E11200AE
:1007C4000F0EC16E95928392820E676E0F0E686E45
:0807D400010E696ECDDF120079
:1007DC005F6A606A616A626A010E636E000E646E23
:1007EC00010E656E000E666E5F6A606A59C001F09C
:1007FC005AC002F0013601900236800E6018006E6D
:10080C00800E0218005C02E101505F5C65E2010E93
:10081C005F24036E000E6020046E03C000F004C061
:10082C0001F0003600900136150E0024E96E000E22
:10083C000120EA6EEECF00F0EECF01F065C004F0BF
:10084C0066C005F040DE63C004F064C005F063DEF2
:10085C0000C061F001C062F05FC000F060C001F048
:10086C00003600900136150E0024E96E000E0120B2
:10087C00EA6EEECF01F0EECF02F0000E021802E1AC
:10088C00000E01181CE05FC000F060C001F00036E3
:10089C0000900136150E0024E96E000E0120EA6E60
:1008AC00EECF67F0EECF68F061C069F062C06AF01D
:1008BC0095DE61C067F062C068F0E4DD08D061C00D
:1008CC0067F062C068F0673667906836BADD020E72
:1008DC005F26000E60228AD7F40E736E010E746EC2
:0408EC0085DD120094
:0C08F000A5EC04F067DF72DFFED7FFD735
:10094A0010EE15F0460E006E010E016EFC0EF66EEC
:0E095A00080EF76E000EF86EDAEC03F01200D5
:1008FC004B025000000028004B0250000000280062
:10090C004B025000000050004B02A00000002800D9
:10091C004B02A000000028004B02A0000000500079
:10092C004B025000000028004B0250000000280031
:04093C004B0250001A
:020940001100A4
:08094200332E322E322E30005C
:020000040030CA
:0D000100021F1EFF8381FF0FC00FE00F40A4
:00000001FF
