:1000000014EF06F00000000000EF00F00000000018
:0A0010000000000000000000F3D71C
:10001C000B6A0A6A096A086A0E6A033408360450C5
:10002C00085E0550D8A0053C095E0650D8A0063CD9
:10003C000A5E0750D8A0073C0B5EE86AD8A0010EF8
:10004C000E5E0336070E0C6E0334083609360A367C
:10005C000B360E36045003A012D0085E0550D8A003
:10006C00053C095E0650D8A0063C0A5E0750D8A095
:10007C00073C0B5EE86AD8A0010E0E5E11D0082674
:10008C000550D8B0053C09260650D8B0063C0A26C7
:10009C000750D8B0073C0B26E86AD8B0010E0E26E4
:1000AC0003360C2ED1D70234083609360A360B36F5
:1000BC000E36045003A012D0085E0550D8A0053CA3
:1000CC00095E0650D8A0063C0A5E0750D8A0073C33
:1000DC000B5EE86AD8A0010E0E5E11D00826055002
:1000EC00D8B0053C09260650D8B0063C0A26075065
:1000FC00D8B0073C0B26E86AD8B0010E0E260236A3
:10010C00070E0C6E0234083609360A360B360E36DC
:10011C00045002A012D0085E0550D8A0053C095E20
:10012C000650D8A0063C0A5E0750D8A0073C0B5ED0
:10013C00E86AD8A0010E0E5E11D008260550D8B082
:10014C00053C09260650D8B0063C0A260750D8B004
:10015C00073C0B26E86AD8B0010E0E2602360C2E90
:10016C00D1D70134083609360A360B360E36045010
:10017C0002A012D0085E0550D8A0053C095E0650BE
:10018C00D8A0063C0A5E0750D8A0073C0B5EE86A74
:10019C00D8A0010E0E5E11D008260550D8B0053C33
:1001AC0009260650D8B0063C0A260750D8B0073CA2
:1001BC000B26E86AD8B0010E0E260136070E0C6E1F
:1001CC000134083609360A360B360E36045001A0B7
:1001DC0012D0085E0550D8A0053C095E0650D8A088
:1001EC00063C0A5E0750D8A0073C0B5EE86AD8A014
:1001FC00010E0E5E11D008260550D8B0053C09261C
:10020C000650D8B0063C0A260750D8B0073C0B263F
:10021C00E86AD8B0010E0E2601360C2ED1D7003468
:10022C00083609360A360B360E36045001A012D0A9
:10023C00085E0550D8A0053C095E0650D8A0063CC7
:10024C000A5E0750D8A0073C0B5EE86AD8A0010EE6
:10025C000E5E11D008260550D8B0053C0926065074
:10026C00D8B0063C0A260750D8B0073C0B26E86AE3
:10027C00D8B0010E0E260036070E0C6E0034083670
:10028C0009360A360B360E36045000A012D0085E22
:10029C000550D8A0053C095E0650D8A0063C0A5E65
:1002AC000750D8A0073C0B5EE86AD8A0010E0E5E82
:1002BC0011D008260550D8B0053C09260650D8B0F8
:1002CC00063C0A260750D8B0073C0B26E86AD8B083
:1002DC00010E0E2600360C2ED1D700B00ED00450D5
:1002EC0008260550D8B0053C09260650D8B0063C67
:0C02FC000A260750D8B0073C0B26120061
:10030800086A096A100E0C6E013408360936045062
:10031800085E0550D8A0053C095ED8B007D0045047
:1003280008260550D8B0053C0926D8900036013675
:060338000C2EEAD71200B2
:10033E000201F507F507F5C201F0F50701500008B7
:10034E0003E200000000F7D70000000000000000EC
:04035E000000120089
:100362000134083609360450085E0550D8A0053C11
:10037200095E003601360F0E0C6E0134083609365E
:10038200045000A006D0085E0550D8A0053C095EC6
:1003920005D008260550D8B0053C0926003601369E
:1003A2000C2EEBD700B006D0045008260550D8B06A
:0803B200053C092600001200C1
:1003BA00800E006EBB0E016E000E026E036E1200FE
:1003CA00220E0C6E086A096A0A6A0B6A0C06D8B40D
:1003DA001FD0D8900B320A32093208320332023265
:1003EA0001320032D8A0F2D70C06D8B409D0045092
:1003FA0008260550092206500A2207500B22EAD77E
:10040A00045008260550092206500A2207500B22DA
:02041A001200CE
:10041C000201F76BF86BF76BF86B800EF619006E38
:10042C00800EF819005C02E1F751F55D0CE3100E3B
:10043C000C6E940E0D6E0D2EFED70C2EFCD70000FC
:08044C00F74BF82BEAD7120070
:100454000201EB6BEC6BE9C200F0EAC201F001327D
:100464000032019E01BC018E01AE03D002E3004ABA
:10047400012A00C0EBF201C0ECF2829082928294D5
:1004840000C0F5F201C0F6F2C7DF82908292829436
:0C049400EBC2F5F2ECC2F6F2BFDF120082
:1004A0000201EB6BEC6BE9C200F0EAC201F0013231
:1004B0000032019E01BC018E01AE03D002E3004A6E
:1004C000012A00C0EBF201C0ECF2828082828284B9
:1004D00000C0F5F201C0F6F2A1DF82908292829410
:0C04E000EBC2F5F2ECC2F6F299DF12005C
:1004EC000B6A0A6A096A00500402F4CF09F0F3CFD0
:1004FC0008F001500502F4CF0BF0F3CF0AF00050D6
:10050C000502F3500926F4500A22E86A0B22015026
:10051C000402F3500926F4500A22E86A0B2208C0A0
:10052C0000F009C001F00AC002F00BC003F0120089
:10053C00E9C2DDF2EAC2DEF2EBC201F0010E006E9E
:10054C00015004E000360090FF0FFBD700C0DCF236
:10055C00001E00C0DBF2120E0201E925E96E000E4E
:10056C00EA21EA6E0050EF16120EE95E0050EF160B
:02057C0012006B
:10057E001DDFE80E046E030E056E000E066E076E8E
:10058E001DDF00C0F1F201C0F2F202C0F3F203C0AF
:10059E00F4F2E9C204F0EAC205F0000E066E076E30
:1005AE0036DD00C0F1F201C0F2F202C0F3F203C078
:1005BE00F4F200C005F001C006F002C007F003C05F
:1005CE0008F00832073206320532089E083207322A
:1005DE0006320532089E05C000F006C001F007C0C5
:1005EE0002F008C003F00332023201320032039EE1
:1005FE0000C0EDF201C0EEF2D9DEEBC204F0ECC2A7
:10060E0005F0000E066E076ED9DEEDC209F0EEC2E1
:10061E000AF0000E0B6E0C6E030E086E09C004F08D
:10062E000AC005F00BC006F00CC007F0085007E03A
:10063E0004360490053606360736FF0FF8D7E7DC8A
:10064E0000C0F1F201C0F2F202C0F3F203C0F4F204
:10065E000A0E046E000E056EEDC200F0EEC201F041
:10066E004CDE00C0EDF201C0EEF2000E015C02E1C4
:10067E00030E005C01E242D0DDC2E9FFDEC2EAFFFA
:10068E000201F451000808E1F351000805E1F251AE
:10069E00000802E1F15100082FE2DC51EF12EE5397
:1006AE000DE0EF6BF06B000EF05D02E1EE51EF5DD1
:1006BE0005E2F56B3DDEEF4BF02BF5D7EDC2F5F213
:1006CE0037DEDB51EF16EE530DE0EF6BF06B000EE5
:1006DE00F05D02E1EE51EF5D05E2F56B29DEEF4BC9
:1006EE00F02BF5D7EDC2F5F223DE010EF15F000E11
:0E06FE00F25BF35BF45BC4D7DB51EF16120026
:10070C000450000A08E10550000A05E1FF0E006ED6
:10071C007F0E016E57D00D6A096A086A01500010ED
:10072C00D8B4000C015005180A6E0ABE0D1E0B6AD7
:10073C0005AE05D0041E051E042AD8B4052A01AE48
:10074C0005D0001E011E002AD8B4012A0150051044
:10075C000A6E0ABE10D0FFDD0BB020D00DAE000C1F
:10076C00001E011E002AD8B4012A081E091E082AE0
:10077C00D8B4092A000C05AE0DD001BE07D001502B
:10078C00096E0050086E016A006AE8D7016A006AB7
:10079C00002A000C011E001E0B2ADDD7082AD8B433
:1007AC00092A0450085CD8A4D9D70550095CD8A4F0
:1007BC00D5D7096A086A002AD8B4012A01AECED767
:0607CC000000FF0C12000A
:1007D2000900F5CFE6FF0006FBE10106F9E1120090
:1007E2000F0EC16E9490949294948290829282940D
:1007F2009284800E0201E96F0F0EEA6FEB6B9DDEB1
:020802001200E2
:100804000201E16BE26BE36BE46B030EE56F000E38
:10081400E66F020EE76F000EE86FE16BE26B19C141
:1008240001F01AC102F0013601900236800EE2197D
:10083400006E800E0218005C02E10150E15D66E288
:10084400010EE125036E000EE221046E03C000F0E8
:1008540004C001F0003600900136230E0024E96E36
:10086400020E0120EA6EEECF00F0EECF01F0E7C2F7
:1008740004F0E8C205F038DEE5C204F0E6C205F093
:1008840043DF00C0E3F201C0E4F2E1C200F0E2C2DF
:1008940001F0003600900136230E0024E96E020EAA
:1008A4000120EA6EEECF01F0EECF02F0000E021846
:1008B40002E1000E01181CE0E1C200F0E2C201F006
:1008C400003600900136230E0024E96E020E01204A
:1008D400EA6EEECFE9F2EECFEAF2E3C2EBF2E4C263
:1008E400ECF24BDEE3C2E9F2E4C2EAF2D7DD09D06E
:1008F4000201E3C2E9F2E4C2EAF2E937E991EA3734
:10090400A7DD020EE127000EE22389D7FA0EF56F68
:08091400000EF66F81DD1200F8
:10091C000201E16BE26BE36BE46B030EE56F000E1F
:10092C00E66F020EE76F000EE86FE16BE26B17C12A
:10093C0001F018C102F0013601900236800EE21966
:10094C00006E800E0218005C02E10150E15D66E26F
:10095C00010EE125036E000EE221046E03C000F0CF
:10096C0004C001F0003600900136150E0024E96E2B
:10097C00000E0120EA6EEECF00F0EECF01F0E7C2E0
:10098C0004F0E8C205F0ACDDE5C204F0E6C205F007
:10099C00B7DE00C0E3F201C0E4F2E1C200F0E2C253
:1009AC0001F0003600900136150E0024E96E000EA1
:1009BC000120EA6EEECF01F0EECF02F0000E02182D
:1009CC0002E1000E01181CE0E1C200F0E2C201F0ED
:1009DC00003600900136150E0024E96E000E012041
:1009EC00EA6EEECFE9F2EECFEAF2E3C2EBF2E4C24A
:1009FC00ECF2BFDDE3C2E9F2E4C2EAF24BDD09D06E
:100A0C000201E3C2E9F2E4C2EAF2E937E991EA371A
:100A1C001BDD020EE127000EE22389D7FA0EF56FDB
:080A2C00000EF66FF5DC12006C
:100A34000201E16BE26B80A467D0000EE21902E1CF
:100A4400000EE11908E1829082928294010EE16F16
:100A5400000EE26F53D0000EE21902E1010EE1191B
:100A640008E1828082928294020EE16F000EE26FAE
:100A740045D0000EE21902E1020EE11908E182807C
:100A840082828294030EE16F000EE26F37D0000E73
:100A9400E21902E1030EE11908E182908282829454
:100AA400040EE16F000EE26F29D0000EE21902E19C
:100AB400040EE11908E1829082828284050EE16FBE
:100AC400000EE26F1BD0000EE21902E1050EE119DF
:100AD40008E1829082928284060EE16F000EE26F3A
:100AE4000DD0000EE21902E1060EE11907E1828041
:100AF40082928284010EE16F000EE26FFA0EF56FAE
:0A0B0400000EF66F89DC97D712008F
:100B0E000201E16BE26BE36BE46B020EE56F000E2C
:100B1E00E66F010EE76F000EE86FE16BE26B15C139
:100B2E0001F016C102F0013601900236800EE21974
:100B3E00006E800E0218005C02E10150E15D66E27B
:100B4E00010EE125036E000EE221046E03C000F0DB
:100B5E0004C001F00036009001361B0E0024E96E31
:100B6E00010E0120EA6EEECF00F0EECF01F0E7C2EB
:100B7E0004F0E8C205F0B3DCE5C204F0E6C205F00D
:100B8E00BEDD00C0E3F201C0E4F2E1C200F0E2C259
:100B9E0001F00036009001361B0E0024E96E010EA6
:100BAE000120EA6EEECF01F0EECF02F0000E021839
:100BBE0002E1000E01181CE0E1C200F0E2C201F0F9
:100BCE000036009001361B0E0024E96E010E012046
:100BDE00EA6EEECFE9F2EECFEAF2E3C2EBF2E4C256
:100BEE00ECF2C6DCE3C2E9F2E4C2EAF252DC09D06E
:100BFE000201E3C2E9F2E4C2EAF2E937E991EA3727
:100C0E0022DC020EE127000EE22389D7FA0EF56FE1
:0A0C1E00000EF66F0EEC02F012005B
:100C2800AAEC07F00201DF6BE06BD7DDFA0EF56F77
:100C3800000EF66F0EEC02F080B422D0000EE01920
:100C480002E1000EDF1906E1D9DD010EDF6F000EAB
:100C5800E06F15D0000EE01902E1010EDF1906E180
:100C680052DF020EDF6F000EE06F09D0000EE019B0
:100C780002E1020EDF1903E14DDEDF6BE06B01D00C
:060C8800D5DEDAD7FFD72C
:100F540010EE15F0C60E006E030E016E8E0EF66EC8
:0E0F64000C0EF76E000EF86EE9EC03F01200B2
:100C8E00EE015000B8015000EE01A0004A018002B2
:100C9E000000A0000B025000EE0150000B02A0005D
:100CAE00EE01A000B80180020000A0000B0250006F
:100CBE00EE0150000B0240014A0180020000A0002C
:100CCE00B801500088015000B801A0008801A000B2
:100CDE007201A000B801A000880140010000A00030
:100CEE00EE015000B8015000EE01A0004A01800252
:100CFE000000A0000B025000EE0150000B02A000FD
:100D0E00EE01A000B80180020000A0000B0250000E
:100D1E00EE0150000B0240014A0180020000A000CB
:100D2E00B801500088015000B801A0008801A00051
:100D3E007201A000B801A0008801E001720150000C
:100D4E0088015000B801E00188015000B801500040
:100D5E00EE01A000B801A0008801A0007201A00061
:100D6E004A0140010B024001EE018002EE01A0009B
:100D7E000B024001EE015000B8015000EE010005DB
:020D8E00420021
:020D9000400021
:020D92002E0031
:100D9400880140010000A0008801E001D201400167
:100DA4000B024001880140010000A0008801E0011D
:100DB4005D01400172014001880140010000A00072
:100DC4008801E001D20140010B0240018801400189
:100DD4000000A0008801E0015D01400172014001B2
:100DE400DC03A0001003A0004B020005DC03A000FC
:100DF4001003A00015010005DC03A0001003A000EF
:100E040006010005EE01A0000601A0000000000597
:100E1400EE01A0008801A000E4020005EE01A0009C
:100E24008801A000BA020005EE01A0008801A0001C
:100E3400930200059302A0004B02A00000000005ED
:100E4400880140010000A0008801E001D2014001B6
:100E54000B024001880140010000A0008801E0016C
:100E64005D01400172014001880140010000A000C1
:100E74008801E001D20140010B02400188014001D8
:100E84000000A0008801E0015D0140017201400101
:080E9400880180020000000546
:100E9C00930240011003F0009302A0009302500053
:100EAC007003A0009302A0002601A0009302400151
:100EBC00DC03F0009302A000930250001704A00082
:100ECC00DC03A0001003A0009302A000DC03A00030
:100EDC002705A000930250002601A0002601500017
:100EEC00EE01A000E402A0009302A00593024001D1
:100EFC001003F0009302A000930250007003A000B6
:100F0C009302A0002601A00093024001DC03F00034
:100F1C009302A000930250001704A000DC03A00071
:100F2C001003A0009302A000DC03A0002705A00082
:100F3C00930250002601A00026015000EE01A000F3
:080F4C00E402A0009302A005DD
:020000040030CA
:0E000000000C1F1EFF8381FF0FC00FE00F409A
:00000001FF
